{
  "contractName": "Court",
  "abi": [
    {
      "inputs": [],
      "payable": false,
      "stateMutability": "nonpayable",
      "type": "constructor"
    },
    {
      "constant": false,
      "inputs": [
        {
          "name": "_courtId",
          "type": "string"
        },
        {
          "name": "_firstParty",
          "type": "string"
        },
        {
          "name": "_secondParty",
          "type": "string"
        },
        {
          "name": "_judge",
          "type": "string"
        },
        {
          "name": "_caseId",
          "type": "string"
        },
        {
          "name": "_caseDescription",
          "type": "string"
        },
        {
          "name": "_startDateTime",
          "type": "string"
        }
      ],
      "name": "registerCase",
      "outputs": [],
      "payable": false,
      "stateMutability": "nonpayable",
      "type": "function"
    },
    {
      "constant": false,
      "inputs": [
        {
          "name": "_caseId",
          "type": "string"
        },
        {
          "name": "_description",
          "type": "string"
        },
        {
          "name": "_fileHash",
          "type": "string"
        },
        {
          "name": "_evidenceType",
          "type": "string"
        },
        {
          "name": "_createdDateTime",
          "type": "string"
        }
      ],
      "name": "registerEvidence",
      "outputs": [],
      "payable": false,
      "stateMutability": "nonpayable",
      "type": "function"
    },
    {
      "constant": true,
      "inputs": [
        {
          "name": "caseId",
          "type": "string"
        }
      ],
      "name": "getCaseById",
      "outputs": [
        {
          "name": "",
          "type": "string"
        },
        {
          "name": "",
          "type": "string"
        },
        {
          "name": "",
          "type": "string"
        },
        {
          "name": "",
          "type": "uint256"
        }
      ],
      "payable": false,
      "stateMutability": "view",
      "type": "function"
    },
    {
      "constant": true,
      "inputs": [
        {
          "name": "caseId",
          "type": "string"
        },
        {
          "name": "evidenceId",
          "type": "uint256"
        }
      ],
      "name": "getEvidenceById",
      "outputs": [
        {
          "name": "",
          "type": "string"
        },
        {
          "name": "",
          "type": "string"
        },
        {
          "name": "",
          "type": "string"
        },
        {
          "name": "",
          "type": "string"
        }
      ],
      "payable": false,
      "stateMutability": "view",
      "type": "function"
    }
  ],
  "bytecode": "0x608060405234801561001057600080fd5b50611336806100206000396000f3006080604052600436106100615763ffffffff7c0100000000000000000000000000000000000000000000000000000000600035041663100e300581146100665780632a18c9ee146101d1578063439327741461039f578063db1dbff8146104f2575b600080fd5b34801561007257600080fd5b5061008660048035602481019101356106bf565b60405180806020018060200180602001858152602001848103845288818151815260200191508051906020019080838360005b838110156100d15781810151838201526020016100b9565b50505050905090810190601f1680156100fe5780820380516001836020036101000a031916815260200191505b50848103835287518152875160209182019189019080838360005b83811015610131578181015183820152602001610119565b50505050905090810190601f16801561015e5780820380516001836020036101000a031916815260200191505b50848103825286518152865160209182019188019080838360005b83811015610191578181015183820152602001610179565b50505050905090810190601f1680156101be5780820380516001836020036101000a031916815260200191505b5097505050505050505060405180910390f35b3480156101dd57600080fd5b506101f5602460048035828101929101359035610be8565b6040518080602001806020018060200180602001858103855289818151815260200191508051906020019080838360005b8381101561023e578181015183820152602001610226565b50505050905090810190601f16801561026b5780820380516001836020036101000a031916815260200191505b5085810384528851815288516020918201918a019080838360005b8381101561029e578181015183820152602001610286565b50505050905090810190601f1680156102cb5780820380516001836020036101000a031916815260200191505b50858103835287518152875160209182019189019080838360005b838110156102fe5781810151838201526020016102e6565b50505050905090810190601f16801561032b5780820380516001836020036101000a031916815260200191505b50858103825286518152865160209182019188019080838360005b8381101561035e578181015183820152602001610346565b50505050905090810190601f16801561038b5780820380516001836020036101000a031916815260200191505b509850505050505050505060405180910390f35b3480156103ab57600080fd5b506040805160206004803580820135601f81018490048402850184019095528484526104f094369492936024939284019190819084018382808284375050604080516020601f89358b018035918201839004830284018301909452808352979a99988101979196509182019450925082915084018382808284375050604080516020601f89358b018035918201839004830284018301909452808352979a99988101979196509182019450925082915084018382808284375050604080516020601f89358b018035918201839004830284018301909452808352979a99988101979196509182019450925082915084018382808284375050604080516020601f89358b018035918201839004830284018301909452808352979a999881019791965091820194509250829150840183828082843750949750610edb9650505050505050565b005b3480156104fe57600080fd5b506040805160206004803580820135601f81018490048402850184019095528484526104f094369492936024939284019190819084018382808284375050604080516020601f89358b018035918201839004830284018301909452808352979a99988101979196509182019450925082915084018382808284375050604080516020601f89358b018035918201839004830284018301909452808352979a99988101979196509182019450925082915084018382808284375050604080516020601f89358b018035918201839004830284018301909452808352979a99988101979196509182019450925082915084018382808284375050604080516020601f89358b018035918201839004830284018301909452808352979a99988101979196509182019450925082915084018382808284375050604080516020601f89358b018035918201839004830284018301909452808352979a99988101979196509182019450925082915084018382808284375050604080516020601f89358b018035918201839004830284018301909452808352979a9998810197919650918201945092508291508401838280828437509497506110469650505050505050565b606080606060006106ce6111d3565b60008787604051808383808284379091019485525050604051928390036020019092206009015460ff1615159150610769905057604080517f08c379a000000000000000000000000000000000000000000000000000000000815260206004820152601460248201527f4e6f207375636820636173652065786973747321000000000000000000000000604482015290519081900360640190fd5b600087876040518083838082843790910194855250506040805193849003602090810185208054610140601f6002600019610100600186161502019093169290920491820184900490930287018301909352610120860183815290945085935091849184018282801561081d5780601f106107f25761010080835404028352916020019161081d565b820191906000526020600020905b81548152906001019060200180831161080057829003601f168201915b50505050508152602001600182018054600181600116156101000203166002900480601f0160208091040260200160405190810160405280929190818152602001828054600181600116156101000203166002900480156108bf5780601f10610894576101008083540402835291602001916108bf565b820191906000526020600020905b8154815290600101906020018083116108a257829003601f168201915b5050509183525050600282810180546040805160206001841615610100026000190190931694909404601f810183900483028501830190915280845293810193908301828280156109515780601f1061092657610100808354040283529160200191610951565b820191906000526020600020905b81548152906001019060200180831161093457829003601f168201915b505050918352505060038201805460408051602060026001851615610100026000190190941693909304601f81018490048402820184019092528181529382019392918301828280156109e55780601f106109ba576101008083540402835291602001916109e5565b820191906000526020600020905b8154815290600101906020018083116109c857829003601f168201915b505050918352505060048201805460408051602060026001851615610100026000190190941693909304601f8101849004840282018401909252818152938201939291830182828015610a795780601f10610a4e57610100808354040283529160200191610a79565b820191906000526020600020905b815481529060010190602001808311610a5c57829003601f168201915b505050918352505060058201805460408051602060026001851615610100026000190190941693909304601f8101849004840282018401909252818152938201939291830182828015610b0d5780601f10610ae257610100808354040283529160200191610b0d565b820191906000526020600020905b815481529060010190602001808311610af057829003601f168201915b5050509183525050600782015460208083019190915260088301805460408051601f60026000196101006001871615020190941693909304928301859004850281018501825282815294019392830182828015610bab5780601f10610b8057610100808354040283529160200191610bab565b820191906000526020600020905b815481529060010190602001808311610b8e57829003601f168201915b50505091835250506009919091015460ff161515602090910152805160a082015160e083015160c090930151919a90995091975095509350505050565b606080606080610bf6611222565b6000888860405180838380828437909101948552505060408051938490036020908101852060008c815260069091018252829020805460e0601f600260001961010060018616150201909316929092049182018490049093028701830190935260c08601838152909450859350918491840182828015610cb75780601f10610c8c57610100808354040283529160200191610cb7565b820191906000526020600020905b815481529060010190602001808311610c9a57829003601f168201915b50505050508152602001600182018054600181600116156101000203166002900480601f016020809104026020016040519081016040528092919081815260200182805460018160011615610100020316600290048015610d595780601f10610d2e57610100808354040283529160200191610d59565b820191906000526020600020905b815481529060010190602001808311610d3c57829003601f168201915b505050918352505060028281015473ffffffffffffffffffffffffffffffffffffffff1660208084019190915260038401805460408051601f60001960018516156101000201909316959095049182018490048402850184018152818552909401939091830182828015610e0e5780601f10610de357610100808354040283529160200191610e0e565b820191906000526020600020905b815481529060010190602001808311610df157829003601f168201915b5050509183525050600482015460208083019190915260058301805460408051601f60026000196101006001871615020190941693909304928301859004850281018501825282815294019392830182828015610eac5780601f10610e8157610100808354040283529160200191610eac565b820191906000526020600020905b815481529060010190602001808311610e8f57829003601f168201915b50505091909252505081516020830151606084015160a090940151919c909b5092995097509095505050505050565b6000610ee5611222565b6000876040518082805190602001908083835b60208310610f175780518252601f199092019160209182019101610ef8565b51815160209384036101000a600019018019909216911617905292019485525060408051948590038201852060c0860182528b86528583018b90523386830152606086018a905242608087015260a086018990526007810154600101600090815260068201845291909120855180519298509596508695909450610f9f93508492019061126f565b506020828101518051610fb8926001850192019061126f565b50604082015160028201805473ffffffffffffffffffffffffffffffffffffffff191673ffffffffffffffffffffffffffffffffffffffff9092169190911790556060820151805161101491600384019160209091019061126f565b506080820151600482015560a0820151805161103a91600584019160209091019061126f565b50505050505050505050565b6101206040519081016040528088815260200187815260200186815260200185815260200184815260200183815260200160008152602001828152602001600115158152506000846040518082805190602001908083835b602083106110bd5780518252601f19909201916020918201910161109e565b51815160209384036101000a60001901801990921691161790529201948552506040519384900381019093208451805191946110fe9450859350019061126f565b506020828101518051611117926001850192019061126f565b506040820151805161113391600284019160209091019061126f565b506060820151805161114f91600384019160209091019061126f565b506080820151805161116b91600484019160209091019061126f565b5060a0820151805161118791600584019160209091019061126f565b5060c0820151600782015560e082015180516111ad91600884019160209091019061126f565b5061010091909101516009909101805460ff191691151591909117905550505050505050565b6101206040519081016040528060608152602001606081526020016060815260200160608152602001606081526020016060815260200160008152602001606081526020016000151581525090565b60c0604051908101604052806060815260200160608152602001600073ffffffffffffffffffffffffffffffffffffffff1681526020016060815260200160008152602001606081525090565b828054600181600116156101000203166002900490600052602060002090601f016020900481019282601f106112b057805160ff19168380011785556112dd565b828001600101855582156112dd579182015b828111156112dd5782518255916020019190600101906112c2565b506112e99291506112ed565b5090565b61130791905b808211156112e957600081556001016112f3565b905600a165627a7a7230582003bdedb36b479d38414786fc3b887182f8f4daf4d98c95fc25cb0f3db23f3c920029",
  "source": "pragma solidity ^0.4.24;\n\ncontract Court\n{\n    struct Evidence{\n        string description;\n        string fileHash; // ipfs file hash to access the evidence media file\n        address owner; // the person who is uploading the evidence (one of either firstParty or the secondParty)\n        // string evidenceId;\n        string evidenceType; // 'documentary' / 'audio' / 'video'\n        uint timestamp; // uploaded to blockchain time\n        string createdDateTime; // 'ISO datetime string, tells evidence creation true time reported by party'\n    }\n\n    struct Case {\n        string courtId;\n        string firstParty;\n        string secondParty;\n        string judge;\n        string caseId;\n        string caseDescription;\n        mapping(uint => Evidence) evidences; // evidence[evidenceNum] = someEvidence\n        uint totalEvidences; // length of evidences\n        string startDateTime;\n        bool initialised;\n    }\n\n    mapping(string => Case) cases; // cases[caseId] = someCase;\n\n    constructor() public { }\n\n    function registerCase(\n        string _courtId,\n        string _firstParty,\n        string _secondParty,\n        string _judge,\n        string _caseId,\n        string _caseDescription,\n        string _startDateTime\n    ) public {\n        cases[_caseId] = Case({\n            courtId: _courtId,\n            firstParty: _firstParty,\n            secondParty: _secondParty,\n            judge: _judge,\n            caseId: _caseId,\n            caseDescription: _caseDescription,\n            totalEvidences: 0,\n            startDateTime: _startDateTime,\n            initialised: true\n        });\n    }\n\n    function registerEvidence(\n        string _caseId,\n        string _description,\n        string _fileHash,\n        string _evidenceType,\n        string _createdDateTime\n    ) public {\n        // require(\n        //     msg.sender == cases[_caseId].firstParty || msg.sender == cases[_caseId].secondParty,\n        //     \"You must be either of parties to register an evidence\"\n        // );\n        Case storage contextCase = cases[_caseId];\n        Evidence memory newEvidence = Evidence({\n            description: _description,\n            fileHash: _fileHash,\n            owner: msg.sender,\n            evidenceType: _evidenceType,\n            createdDateTime: _createdDateTime,\n            timestamp: now\n        });\n        contextCase.evidences[contextCase.totalEvidences + 1] = newEvidence;\n    }\n\n    function getCaseById(\n        string caseId\n    ) view external returns (string, string, string, uint) {\n        require(cases[caseId].initialised, \"No such case exists!\");\n        Case memory reqcase = cases[caseId];\n        return (\n            reqcase.courtId,\n            reqcase.caseDescription,\n            reqcase.startDateTime,\n            reqcase.totalEvidences\n        );\n    }\n\n    function getEvidenceById(\n        string caseId,\n        uint evidenceId\n    ) view external returns (string, string, string, string) {\n        Evidence memory evd = cases[caseId].evidences[evidenceId];\n        return (\n            evd.description,\n            evd.fileHash,\n            evd.evidenceType,\n            evd.createdDateTime\n        );\n    }\n\n    // function registerDetective() public returns (address) {\n    //     players.push(msg.sender);\n    //     return detective;\n    // }\n\n    // function registerForensic() public returns (address) {\n    //     players.push(msg.sender);\n    //     return forensic;\n    // }\n\n    // function getEvidence(uint _id) public view returns(string, uint, string, address, uint) {\n    //     Evidence memory evd = evds[_id];\n    //     return (\n    //         evd.description,\n    //         evd.caseNumber,\n    //         evd.hash,\n    //         evd.owner,\n    //         evd.timestamp\n    //     );\n    // }\n\n}\n",
  "sourcePath": "/Users/akshat/Desktop/iHack/contracts/Court.sol",
  "compiler": {
    "name": "solc",
    "version": "0.4.24+commit.e67f0147.Emscripten.clang"
  },
  "schemaVersion": "2.0.1",
  "updatedAt": "2019-01-20T08:17:43.551Z"
}